S01300004578697450726F6A6563742E73726563A0
S214080000D8AB0720C9260800C5260800C52608005C
S214080010C5260800C5260800C526080000000000FA
S214080020000000000000000000000000A10B08000F
S214080030C5260800000000001D0C0800590C080022
S214080040C5260800C5260800C5260800C5260800D7
S214080050C5260800C5260800C5260800C5260800C7
S214080060C5260800C526080000000000352508003B
S214080070492508005D2508007125080000000000D5
S21408008000000000C5260800C5260800C52608008A
S214080090C5260800C5260800C5260800C526080087
S2140800A0C526080000000000C5260800C52608006A
S2140800B0C5260800C5260800C5260800C526080067
S2140800C0C5260800C5260800C5260800C526080057
S2140800D0C5260800C5260800C5260800C526080047
S2140800E0C5260800C5260800C5260800C526080037
S2140800F0C526080010B5054C237833B9044B13B150
S2140801000448AFF300800123237010BDD8080720E9
S21408011000000000A8A4080008B5064B1BB1064856
S2140801200649AFF300800648036813B1054B03B1D0
S214080130984708BD00000000A8A40800DC080720AF
S214080140A8A40800000000002DE9F0410C469046DF
S21408015060B9002A0EDD8F18094E0A4D3068214610
S2140801602B6898470134BC42F8D106E04FF0FF30C0
S214080170BDE8F0810020BDE8F0814046BDE8F0818A
S214080180D08B0720A08B072030B4012404600024FD
S214080190446040F20225C0F82051C0F80441C0F877
S2140801A0144145682B435200B1FBF2F14D1E2D0257
S2140801B0ADB22B434360204630BC7047436823F0FB
S2140801C01003436043681943416070474368194306
S2140801D0D201D3B219434160704700BF10B44468D7
S2140801E02243090601F0706422431B0703F04053BC
S2140801F01A4342605DF8044B704700BF0223036051
S214080200704700BF012303FA01F10161704700BF80
S2140802100F299ABF143150F821000020704700BFFC
S214080220F0B48CB007460E4601AC124D0FCD0FC485
S2140802300FCD0FC495E8070084E807006A46002338
S21408024052F8044FB6FBF4F4B4FBF7F4B4F5807F29
S21408025003D901330B2BF3D104E00A2B05D844EA63
S214080260032004E04FF6FF7001E04FF6FF700CB075
S214080270F0BC7047849F080070B506460C460868B0
S21408028040B189680B4B984705464FF6FF7398426E
S21408029001D10EE00025606840B1A168054B98477B
S2140802A04FF6FF73984204D045EA004535600020B3
S2140802B070BD70BD2102080070B40B688C8A4A684D
S2140802C002F00F0214430D892C438A7A44EA42242A
S2140802D08A7D44EA0244CA7D44EA42440A7E44EAE5
S2140802E0824400EB4312C2F80042CC68C2F80442CB
S2140802F00C69C2F80C428A7D3AB18C8B4A8B42EA6A
S214080300044400EB4312C2F81842856C4FF0011201
S2140803109A40D2431540CE7F9E408C7F9C4044EA4C
S21408032006442C438464446C224091F821509D4036
S21408033091F820409C4044EA054422434264012246
S2140803409A4091F822401CB1046A1443046203E000
S214080350046A24EA0204046291F82440012C846E9C
S2140803600CBF14439443846691F82540012C846E90
S2140803700CBF44EA024224EA02428266032B0CD8E7
S214080380C46EDB00FF229A4024EA020291F823108A
S21408039001FA03F31343C3660CE0043B046FDB0067
S2140803A0FF229A4024EA020291F8231001FA03F386
S2140803B013430367002070BC704700BF10B40C6876
S2140803C00B69934206D3CA6000EB4410C0F80822B3
S2140803D0002001E04FF6FF705DF8044B704700BF41
S2140803E0012303FA01F14160704700BF012303FAB5
S2140803F001F18160704700BFF0B583B004460D4632
S214080400002301931F4B984207D11F461E4E3846BD
S2140804102946B0470028FAD119E01C4B984209D162
S2140804201F461B4E384601A9B0470028FAD1019B43
S2140804302B7019E0174B984209D11E46144C3046CB
S21408044001A9A0470028FAD1019B2B7018E0124B8F
S2140804509C4209D11E460E4C304601A9A0470028EA
S214080460FAD1019B2B700BE00C4B9C4208D11E4620
S214080470074C304601A9A0470028FAD1019B2B70EB
S21408048003B0F0BD00080E40B12108000080094006
S214080490D921080000C0094000000A4000400A4070
S2140804A070B50C46214B984207D11E46204D304663
S2140804B02146A8470028FAD12BE01E4B984207D1C0
S2140804C01E461D4D30462146A8470028FAD122E090
S2140804D01A4B984207D11E46174D30462146A84764
S2140804E00028FAD119E0164B984207D11E46124D3D
S2140804F030462146A8470028FAD110E0114B98420A
S2140805000FD11E460C4D30462146A8470028FAD182
S21408051009E0012070BD012070BD012070BD0120DA
S21408052070BD002070BD012070BD00BF00080E40E1
S214080530A121080000800940C521080000C0094024
S21408054000000A4000400A4030B585B008201A4D21
S214080550A8471A4C1A4B1C601A4A1B4B1A601B4AAF
S2140805601B4B1A601B4B01934FF4E13302934FF475
S214080570006303930820A847204601A9164B98470E
S214080580164D2B6898680021154CA0472B685868AC
S2140805900021A047134B4FF480725A665A655A6278
S2140805A0C3F880201A6F22F480721A672B6898683E
S2140805B00021A04705B030BD6D26080000080E4093
S2140805C0D08B0720A1040800CC8B0720F90308006D
S2140805D0A08B072000BD01056921080058040720E4
S2140805E0A53A0800000E0E4070B5124B1B78642B17
S2140805F00AD0732B1DD1104840F257410F4B98472D
S21408060030220C4B1A7070BD0D4C0E4B1868A04764
S21408061006460D4B1868A04705460C4B1868A047B9
S21408062003460B4831462A46044CA0473022014B65
S2140806301A7070BDA48B0720B09F0800D538080034
S214080640F1370800100007202000072028000720A0
S214080650B89F0800000000002DE9F04784B0484B1A
S2140806601B78722B40F08380454E06F1270700233F
S2140806704FF00108DFF82C913FA5D5E9004516F89C
S214080680012F3B2A69D108F1FF33042B61D8DFE834
S21408069003F003213141510001A8C847DFF8F0A054
S2140806A0D047384B984722462B46DFF8FCC0E04731
S2140806B00022354BDFF8F4C0E047D047334B1860CC
S2140806C00DF103030DF10D01002203F8012F8B42F3
S2140806D0FBD13EE001A8C8472D4B98472D4B186024
S2140806E00DF103030DF10D01002203F8012F8B42D3
S2140806F0FBD12EE001A8C847254B9847264B186023
S2140807000DF103030DF10D01002203F8012F8B42B2
S214080710FBD11EE001A8C8471D4B98471F4B186021
S2140807200DF103030DF10D01002203F8012F8B4292
S214080730FBD10EE001A8C847154B9847184B186020
S2140807400DF103030DF10D01002203F8012F8B4272
S214080750FBD108F10108002307E00A2B08BF002395
S21408076004A9194401F80C2C0133BE4287D104B001
S214080770BDE8F087AFF3008066666666666612C0F8
S214080780A48B0720DD2C080000A880402C0007203A
S214080790A9310800140007202400072018000720A5
S2140807A01C0007207D380800852D0800212A08002F
S2140807B008B5084E084C094D30462146A847084B50
S2140807C09847084B9847302323706420064B984771
S2140807D0F2E700BFC49F0800A48B0720FD38080076
S2140807E059060800E9050800411908002DE9F04FE8
S2140807F083B00027DFF8FC90DFF8FC80BA46C847CD
S214080800284B9847284ED6F800B0284D284B18682D
S214080810284B1968A847044630605946A847064634
S214080820254B1860254B1D6828464146244B98479B
S214080830B0B128465146234B984788B1224F2046E8
S2140808403968224B984705463860214B1868214B73
S2140808501968214B984701462846204B9847074673
S2140808601A4D38462146A84783461D4B1868184B2C
S2140808701968194B98470146184C3046A047014658
S2140808805846A847174B1968A0470C4B1860164BD4
S2140808909847164B98470DF106003221144B984797
S2140808A0ADE700BF7D0A0800200007205132080087
S2140808B02C00072010000720F4080720280007202F
S2140808C0B5370800C9370800F80807205532080069
S2140808D01C00072024000720CD35080065340800D2
S2140808E018000720140007203D380800890908006A
S2140808F0A9180800450A080000007A4430B585B0F3
S2140809002420164B9847164C20460621154B984728
S214080910154B019300250295144B0393204601A915
S214080920134B984713490D818D720B224A604FF47A
S2140809307A720A61CD6006250D6020460E4B9847F0
S2140809400E484FF080514FF400020D4B9847204652
S21408095029460C4B984705B030BD00BF6D260800E9
S21408096000400940ED03080040420F0000BD0105A5
S21408097079020800FC080720B902080000120E4099
S214080980C5220800E103080008B5021E05DA084873
S21408099008490022084B984708BDB2F57A7F0448F4
S2140809A00449C8BF4FF47A72034B984708BD00BF86
S2140809B000400940FC080720BD030800074B4FF419
S2140809C080721A61C3F8A0201A63A3F500734FF467
S2140809D000121A61C3F8A0205A63704700140E402C
S2140809E038B525200E4B98470E4C20460E490F4A20
S2140809F008230F4DA847204600214FF44012012334
S214080A000C4DA847204610210B4B984720460A2134
S214080A100A4B9847204600210A46094B984738BD96
S214080A206D26080000000C40007A030A40420F00BA
S214080A3089010800DD010800BD010800050208005C
S214080A40CD01080008B50948094B9847094901F13E
S214080A502003043953F804299A608B42FAD10348D4
S214080A600A21054B9847034B186008BD00000C4048
S214080A70FD01080024090720110208002DE9F041AD
S214080A800B4B1C1F03F1240800250A4F0A4E54F886
S214080A90040FB8472946B047444501D00546F6E74F
S214080AA00649074B9847074B1860BDE8F08100BF1A
S214080AB024090720BD3308005532080000002041ED
S214080AC0CD3508001000072000F1080343604FF6F4
S214080AD0FF720281C360036100230360704700BF92
S214080AE000230361704700BF43685A684A6042683B
S214080AF08A605A68916059604160086103680133EA
S214080B000360704710B40C884FF6FF739C4201D1FF
S214080B1003690CE000F10803C268128892B2944296
S214080B2005D35B685A68128892B29442F9D25A681A
S214080B304A6091608B6059600861036801330360FE
S214080B405DF8044B704700BF436882689A60836804
S214080B5042685A6003695A68824204BF82685A60CB
S214080B60002202611A68013A1A601868704700BFC6
S214080B7003480068006880F3088862B600DF00BF94
S214080B8008ED00E04FF0807340F8043C40F8081C7D
S214080B90002340F80C3C40F8202C4038704700BF33
S214080BA0064B19680868B0E8F00F80F309884FF01C
S214080BB0000080F311884EF00D0E7047788A0720E3
S214080BC04FF08052014B1A60704700BF04ED00E0FA
S214080BD0EFF311804FF0A00181F3118870470020D1
S214080BE008B5034B9847034B1A6801321A6008BDCC
S214080BF0D10B08000000072080F31188704700BF5B
S214080C0008B5044A1368013B136013B90020024B69
S214080C10984708BD00000720F90B0800EFF3098085
S214080C200C4B1A6820E9F00F10602DE908404FF0C9
S214080C30A00080F3118800F0EBFE4FF0000080F370
S214080C401188BDE8084019680868B0E8F00F80F316
S214080C5009887047788A072008B54FF08052054BF8
S214080C601A60054B9847054B98470020044B984751
S214080C7008BD00BF04ED00E0D10B0800751608009B
S214080C80F90B0800034A044B1A600722043B1A6053
S214080C90704700BF1F48010014E000E010B5094B7C
S214080CA01A6842F470021A601A6842F070421A60B3
S214080CB0054B98470024054B1C60054B9847204673
S214080CC010BD00BF20ED00E0850C080000000720DE
S214080CD0710B080030B4134A1368834201D21A46CF
S214080CE0FAE7114654681519854203D16868044422
S214080CF05460104642688418A3420CD10A4C2468F3
S214080D009C4206D05B681A4442600B681B68036006
S214080D1002E0036000E00360814218BF086030BC50
S214080D20704700BF548907205089072038B5044605
S214080D30284B9847284B1B689BB9284A284B1360B2
S214080D400021516047F6F0729818234D286047F640
S214080D50F475595199505A601860224B1A68103A1F
S214080D601A60002C2DD004F1100212F0070F1CBFD9
S214080D7022F007020832511E47F6FE73994222D81F
S214080D8016490C6863689A4204D9236813B1214649
S214080D901C46F7E7104B1B689C4216D00D681035AA
S214080DA023680B6063689B1A202B04D9A01843603D
S214080DB062600D4B98470B4B1A686168521A1A60A6
S214080DC004E0002502E0002500E00025074B9847D0
S214080DD0284638BD4516080050890720548907203C
S214080DE05009072004000720D50C0800A1170800A2
S214080DF010B5044668B1074B9847074B196854F86E
S214080E000C2C0A441A60A4F11000044B9847044BB3
S214080E10984710BD4516080004000720D50C0800A2
S214080E20A117080010B50446036C3BB903681BBB42
S214080E304068134B9847002363601DE06AB98068D2
S214080E401A46104B9847A268236C1344A36062683E
S214080E50934211D32368A3600EE0C0681A46094B74
S214080E609847226C5242E3681344E36021688B4239
S214080E7002D263681A44E260A36B0133A36310BD11
S214080E80391D08002539080038B5034605685DB1E0
S214080E90026CC4681444C4604068844228BFDD609D
S214080EA00846D968014B984738BD00BF2539080061
S214080EB0F8B504461D4B9847A36C002B12DD636AF1
S214080EC083B104F124061A4D1A4F01E0636A4BB148
S214080ED03046A84700B1B847A36C013BA364A36C8F
S214080EE0002BF3DC4FF0FF33A364134B98470F4BEC
S214080EF09847636C002B12DD236983B104F1100652
S214080F000B4D0C4F01E023694BB13046A84700B1A2
S214080F10B847636C013B6364636C002BF3DC4FF0EB
S214080F20FF336364044B9847F8BD00BFE10B080025
S214080F304D1B0800851C0800010C080038B50D4636
S214080F40044618B9164B984700BFFDE7154B984757
S214080F502368226CE06B00FB02F019186160002120
S214080F60A163A360821A1344E3604FF0FF336364FF
S214080F70A36455B923697BB104F110000A4B98475E
S214080F80012809D1094B984706E004F11000084DDE
S214080F90A84704F12400A847064B9847012038BD07
S214080FA0D10B0800E10B08004D1B0800C10B080018
S214080FB0C90A0800010C0800F8B50D46174606468B
S214080FC088B150200E4B9847044660B105FB06F0E2
S214080FD001300B4B9847206040B92046094B98478C
S214080FE001E000BFFDE7084B9847FAE7E66325648B
S214080FF020460121054B984784F84D702046F8BDD9
S2140810002D0D0800F10D0800D10B08003D0F080053
S2140810102DE9F04F85B08A469B46ADF80620044673
S21408102018B9384B984700BFFDE709B9036C1BB9D8
S2140810300027354E354D03E0324B984700BFFDE795
S214081040B047A26BE36B9A4212D2204651465A46E4
S2140810502F4B9847636A3BB104F124002D4B984701
S214081060012801D12C4B9847284B9847012046E089
S214081070BDF806301BB9254B984700203FE01FB93E
S21408108002A8264B98470127A847254B9847B047FC
S214081090636CB3F1FF3F04BF00236364A36CB3F132
S2140810A0FF3F04BF0023A364A84702A80DF106016A
S2140810B01C4B9847E8B9B047D4F83890D4F83C8029
S2140810C0A847C1450FD104F11000BDF80610164B0D
S2140810D098472046154B9847154B98470028AFD198
S2140810E00D4B9847ACE72046104B9847104B98474F
S2140810F0A6E720460D4B98470D4B9847002005B0AD
S214081100BDE8F08FD10B0800E10B0800010C0800C1
S214081110250E08004D1B0800C10B0800D11B08004F
S21408112045160800F91B0800A11A0800B10E0800A9
S214081130A11708002DE9F0410E46154698460446C4
S21408114018B91C4B984700BFFDE729B9036C1BB1BB
S214081150184B984700BFFDE7164B98470746A26B03
S214081160E36B9A4218D2204631464246124B9847BD
S214081170A36CB3F1FF3F0AD1636A7BB104F1240084
S2140811800E4B984760B16DB101242C600BE0A36C40
S2140811900133A364012406E0002404E0012402E0ED
S2140811A0012400E001243846054B98472046BDE850
S2140811B0F08100BFD10B0800250E08004D1B080063
S2140811C0F90B08002DE9F04F85B089469A46ADF828
S2140811D00620044618B9464B984700BFFDE709B9EC
S2140811E0036C2BB90027434EDFF838B1424D03E0B5
S2140811F03F4B984700BFFDE7B047A36B002B28D0AE
S214081200E568204649463D4B9847BAF1000F12D18B
S214081210A36B013BA363236813B9394B98476060F7
S214081220236993B104F11000364B984701280CD176
S214081230354B984709E0E560636A33B104F124004A
S214081240304B984708B1304B98472B4B98470120AE
S2140812504BE0BDF806301BB9274B9847002044E002
S21408126017B902A8D8470127A847284B9847B04778
S214081270636CB3F1FF3F04BF00236364A36CB3F150
S214081280FF3F04BF0023A364A84702A80DF1060188
S2140812901F4B984718BBB047D4F83880A847B8F112
S2140812A0000F16D1236823B9B0476068194B9847D2
S2140812B0A84704F12400BDF80610174B98472046A7
S2140812C0164B9847164B9847002895D10E4B9847CB
S2140812D092E72046114B9847114B98478CE72046D3
S2140812E00E4B98470E4B9847002005B0BDE8F08F88
S2140812F0D10B0800E10B0800010C0800890E080055
S214081300911C08004D1B0800C10B08004516080074
S214081310F91B0800BD1C0800A11A0800B10E080039
S214081320A1170800D11B080038B504460D460D4B1A
S2140813309847636CB3F1FF3F04BF00236364A36C54
S214081340B3F1FF3F04BF0023A364074B9847A36B82
S21408135023B904F124002946044B98472046044B39
S214081360984738BDE10B0800010C0800051B08006B
S214081370B10E080010B504460F4B1B6898800F4B3B
S2140813801B889BB2984207D20D4B18680A4B1968FF
S21408139004310C4B984710BD0B4B1868064B196860
S2140813A00431084B9847094B1B889BB29C423CBFAC
S2140813B0064B1C8010BD00BF788A0720948A072039
S2140813C0988A0720050B080074890720080007205C
S2140813D02DE9F84F0E4617469A460A9DDDF83080E6
S2140813E0814618B9624B984700BFFDE7092D03D917
S2140813F05F4B984700BFFDE750205E4B9847044672
S214081400002800F0B180B8F1000F40F0A980B800BD
S214081410584B9847206318B92046574B9847A3E07F
S214081420A521BA00554B984707F18047013F236B23
S21408143003EB870323F0070B04F134003146102230
S2140814404F4B9847002384F84330092D34BF2E4667
S2140814500926E662E664271D3846DFF87081C0472D
S21408146004F11800C0472461C6F10A0626836462A0
S214081470584649465246434B9847206010F0070F97
S21408148003D03B4B984700BFFDE70B9B03B11C609E
S2140814903D4B98473D4B1A6801321A603C4B1B6817
S2140814A02BBB3B4B1C60394B1B68012B29D1394E93
S2140814B006F1C809DFF8E0803046C04714364E45C6
S2140814C0FAD1DFF80C914846334EB047DFF804816E
S2140814D04046B0473148B0473148B0473148B04732
S2140814E0314BC3F80090314BC3F8008009E0304B0D
S2140814F01B6833B9264B1B68DB6A9D4224BF244B06
S2140815001C60E36A2B4A1268934284BF294A136018
S214081510294A1168616401311160284A12689342A9
S21408152084BF264A136003EB83031A4800EB830044
S2140815303946234B9847234B98471D4B1B684BB19E
S214081540134B1B68DB6A9D4207D91F4B984701203F
S214081550BDE8F88F0120BDE8F88F0120BDE8F88FB8
S214081560C0F8308040465BE74FF0FF30BDE8F88FA4
S214081570D10B08002D0D0800F10D0800113A0800DF
S214081580C93C0800850B0800E10B0800B88A07204C
S214081590788A0720AC890720C90A08007C8A0720B1
S2140815A0808907206089072074890720988A072081
S2140815B078890720BC8A07209C8A0720A8890720E4
S2140815C0E90A0800010C0800C10B0800E10A080037
S2140815D0A08A07209489072010B584B000230093BA
S2140815E00193029303930F480F494FF480720F4CF0
S2140815F0A04701280ED10E4B984701280AD10D4B5B
S214081600984701220C4B1A6000220C4B1A800C4B90
S214081610984704E018B9074B984700BFFDE704B0A1
S21408162010BD00BF8D190800DC9F0800D113080004
S214081630351E0800D10B080078890720948A0720F1
S2140816409D0C0800024B1A6801321A60704700BFEA
S214081650748A072010B5044B9847044B1C88A4B21C
S214081660034B9847204610BDE10B0800948A0720D4
S214081670010C08002DE9F0413D4B1B68002B71D189
S2140816803C4B1A88013292B21A801B889BB203BB65
S214081690394B1B681B681BB1384B984700BFFDE7E2
S2140816A0354B1968364A106818601160354A116853
S2140816B0013111601B681B6823B94FF6FF72324B65
S2140816C01A8006E02C4B1B68DB68DB689A882E4B72
S2140816D01A80284B1A8892B22B4B1B889BB29A42C8
S2140816E044D3254B1B681B6853B1234B1B68DB6828
S2140816F0DC68A3881F4A128892B2934214D90FE076
S2140817004FF6FF72204B1A80BDE8F0811A4B1B6813
S214081710DB68DC68A388174A128892B2934207D916
S214081720194A1380BDE8F081184E194FDFF86C800F
S214081730251D2846B047A36A13B104F11800B04720
S214081740E36A3A68934288BF3B6003EB830008EB82
S214081750800029460F4B9847074B1B681B68002BD1
S214081760D4D1CDE70C4B1A6801321A60BDE8F08177
S214081770748A0720948A072074890720D10B0800EA
S214081780988A0720908A072008000720490B080037
S214081790A8890720E90A08005C890720AC89072081
S2140817A02DE9F843314B1B681BB9314B984700BFEE
S2140817B0FDE7304B98472D4B1A68013A1A601B68AC
S2140817C0002B48D12C4B1B68002B46D00025DFF891
S2140817D0D4802A4F2A4E1DE0D8F80C30DC6804F175
S2140817E01800B84704F104094846B847E36A32685F
S2140817F0934288BF336003EB8303224800EB8300E1
S2140818004946214B9847214B1B68E26ADB6A9A4295
S21408181028BF0125D8F80030002BDDD11C4B1B68EB
S21408182063B11B4B1B687BB11A4D194CA84723683C
S214081830013B23602368002BF8D105E0012D03D077
S214081840154B1B68012B0AD10022134B1A60134B49
S2140818509847012404E0002402E0002400E0002465
S2140818600F4B98472046BDE8F88300BF748A0720C8
S214081870D10B0800E10B0800B88A0720490B0800BE
S214081880A8890720AC890720E90A0800788A072073
S2140818905C89072075160800B48A0720C10B080063
S2140818A0010C08007C8A072038B50C46054618B98E
S2140818B01B4B984700BFFDE719B9194B984700BF5F
S2140818C0FDE7184B98472B881C44A4B2164A128882
S2140818D092B2934208D9A3421ED9134B1B889BB2D7
S2140818E02C809C4210D907E0A34213D80E4B1B88C5
S2140818F09BB29C420ED80FE00C4B186804300C4B79
S214081900984720460B4B98470B4B984730B90B4BDC
S214081910984738BD2C80EFE72C80F5E738BD00BF28
S214081920D10B080045160800948A0720788A0720F5
S214081930490B080075130800A1170800C10B08001A
S21408194010B5044680B10A4B98470A4B1B881C44BE
S214081950A4B2094B18680430084B98472046084B31
S2140819609847084B984708B9074B984710BD00BFDB
S21408197045160800948A0720788A0720490B08002D
S21408198075130800A1170800C10B080080B5154D8F
S214081990154EDFF878801CE0144B9847144B1C68EB
S2140819A0144B9847ACB1144B9847114BDB68DC686E
S2140819B0201D124B9847124B1A68013A1A602B687A
S2140819C0013B2B600F4B9847206B0F4FB8472046BC
S2140819D0B8472B68002BDFD13368012BF9D9C047ED
S2140819E0F7E700BF7C890720AC8907204516080062
S2140819F080890720A1170800E10B0800490B08009A
S214081A00B88A0720010C0800F10D0800C10B080071
S214081A1008B51D4B1B685BB91C4B1B6803EB83039F
S214081A209B001B4AD358CBB9184B1B6853B905E023
S214081A300122184B1A6008BD1A682AB9164B98472F
S214081A4000BFFDE7114B12491A68013A1A601A6876
S214081A5002EB820251F82220002AEDD00B4B1B68BD
S214081A6003EB83030A4A02EB83035A6852685A60F8
S214081A7003F108018A4204BF52685A605B68DA6854
S214081A80064B1A6008BD00BF748A0720A88907207D
S214081A90AC890720B48A0720D10B0800788A07206B
S214081AA038B50C4618B90F4B984700BFFDE70E4DE2
S214081AB0296818310D4B9847286804300C4B98470E
S214081AC04FF6FF739C4205D129680A4804310A4B31
S214081AD0984738BD094B1888204480B2084B984769
S214081AE038BD00BFD10B0800788A0720050B080010
S214081AF0490B080060890720E90A0800948A07202D
S214081B007513080038B50D4618B90A4B984700BF34
S214081B10FDE7094C21681831084B984720680430BF
S214081B20074B9847074B1888284480B2064B9847B7
S214081B3038BD00BFD10B0800788A0720E90A0800DC
S214081B40490B0800948A07207513080038B5C3683F
S214081B50DC681CB9164B984700BFFDE704F118056A
S214081B602846144B9847144B1B689BB9251D2846D6
S214081B70104B9847E36A114A1268934284BF0F4A8B
S214081B80136003EB83030E4800EB830029460D4BD6
S214081B90984703E00C4829460A4B98470B4B1B68A6
S214081BA0E06ADB6A984234BF0020012038BD00BFD7
S214081BB0D10B0800490B0800748A0720A88907205B
S214081BC0AC890720E90A08007C8A0720788A07205B
S214081BD008B518B9054B984700BFFDE7044A1268D0
S214081BE00260044A1288828008BD00BFD10B080034
S214081BF0908A0720948A072038B50D46044618B9F7
S214081C001A4B984700BFFDE719B9184B984700BF0D
S214081C10FDE7174B98472B884FF6FF7293421CD068
S214081C20144A116822688A4205D0134A128892B26A
S214081C30A188914213D9104A1188A288891A89B2B4
S214081C408B420ED90C49098889B2521A13442B8044
S214081C5020460A4B9847002404E0002402E00124AA
S214081C6000E00124064B9847204638BDD10B0800F3
S214081C70E10B0800908A0720948A0720D11B0800E9
S214081C80010C08000122014B1A607047B48A07202D
S214081C90014B1868704700BF788A0720054B1B68F9
S214081CA033B1054B1B68002B14BF02200120704778
S214081CB00020704778890720748A072038B50446BC
S214081CC000282ED0C36A174A1268D26A934228D2CE
S214081CD0144A1268D26AC2F10A02028303EB83032B
S214081CE0114A02EB830342699A4216D1051D28461B
S214081CF00E4B98470B4B1B68DB6AE3620C4A12686C
S214081D00934284BF0A4A136003EB8303064800EB3A
S214081D1083002946074B984738BD024B1B68DB6A89
S214081D20C36238BD788A0720AC890720490B0800AB
S214081D30A8890720E90A080038B50446D0B1C26A5F
S214081D40C36C9A4216D0051D28460B4B9847E36C81
S214081D50E362C3F10A022283084A1268934284BFE8
S214081D60064A136003EB8303054800EB8300294605
S214081D70044B984738BD00BF490B0800A8890720C0
S214081D80AC890720E90A080010B50446818020615E
S214081D9091420BD8D31A018B9BB2994211D90B4B9F
S214081DA01868211D0A4B9847002010BD9A4201D298
S214081DB0994208D2074B1868211D054B9847002002
S214081DC010BD012010BD012010BD00BFF48A0720F9
S214081DD0050B0800C08A072070B50D4B98470D4BB9
S214081DE01B688BB90C4D28460C4EB0470C4C204649
S214081DF0B0470C4B1D600C4B1C6005200C210022C4
S214081E000A4B9847034B1860094B984770BD00BFAC
S214081E10E10B0800F08A0720C48A0720C90A0800D0
S214081E20D88A0720C08A0720F48A0720B90F080036
S214081E30010C080010B584B00B4B98470B4B1B6879
S214081E4063B1092300930023019302930393084880
S214081E5008494FF40072084CA04718B9074B984732
S214081E6000BFFDE704B010BDD91D0800F08A0720A2
S214081E70951F0800E49F0800D1130800D10B08003E
S214081E8010B584B0104C2468D4B10191ADF8082080
S214081E90039073B90D4B984701280B4B186801A996
S214081EA007BFBDF81820002300221346084CA04799
S214081EB007E0204601A91A460023064CA04700E082
S214081EC0002004B010BD00BFF08A07209D1C080043
S214081ED011100800351108002DE9F04782B0814638
S214081EE0244B98478046244B1B88834237D9234E79
S214081EF0234F27E0DA68B2F800A01FFA8AFADB68F0
S214081F00DC68251D2846B847636A20469847E36973
S214081F10012B17D1238B53449BB2534506D9A38074
S214081F20246130682946174B98470BE00023009336
S214081F30204619465246144CA04718B9134B9847E2
S214081F4000BFFDE733681A68002AD3D1104A116823
S214081F500A48016013600123C9F8003002E0002334
S214081F60C9F80030044BA3F80080404602B0BDE82C
S214081F70F08700BF55160800EC8A0720C08A07209D
S214081F80490B0800050B0800811E0800D10B080045
S214081F90F48A07202DE9F04387B0514DDFF87081A9
S214081FA0504B1B681A68002A00F09080DB681E8871
S214081FB0B6B24D4B984703A84C4B98470746039B29
S214081FC0002B32D1864225D8494B9847454B1B688B
S214081FD0DB68DC68201DC047E369012B15D1218B1F
S214081FE03144204689B23A463346424FB84701281C
S214081FF00BD1002300932046194632463E4EB04782
S21408200018B93E4B984700BFFDE7636A20469847D5
S2140820100DE00026F11B286889B2394B9847344BE7
S214082020984720B9374B984701E0314B984702A8A4
S2140820302E4B98470746344EDFF8B8903EE0059C8E
S2140820401CB1616909B1201DC0470399022923D034
S214082050032930D0002931D1BDF81030218B19441E
S214082060204689B23A46C847012827D1636A2046DF
S2140820709847E369012B21D1228BBDF810301A440A
S214082080002300932046194692B21B4CA047A8B9D5
S2140820901A4B984700BFFDE7BDF8103023831BB9DD
S2140820A0164B984700BFFDE7F918204689B23A460E
S2140820B03B46C84702E02046144B9847286803A9C1
S2140820C000221346B0470028B9D169E7064B98475F
S2140820D003A8064B98470746039B002B99D0A4E70E
S2140820E0F08A0720C08A072045160800D91E08006F
S2140820F0A1170800891D0800811E0800D10B0800DA
S21408210029130800C10B0800C5110800F10D0800C6
S214082110490B08002DE9F0410E46154601380228FD
S2140821200FD892B10024DFF83C800D4FD8F8000095
S214082130315D3B68984700280ADB0134A542F5D193
S2140821400AE04FF0FF30BDE8F0810020BDE8F081DE
S2140821504FF0FF30BDE8F0812046BDE8F08100BFB3
S214082160CC8B0720D08B072010B4AC2303600A68FA
S2140821704B68B2FBF3F31B095C1E4FF6FE729442E3
S2140821800AD803628B68436040F20223C0F8203105
S21408219050230360002000E001205DF8044B7047E0
S2140821A0436913F0020F1ABFC1610020012070476F
S2140821B0436913F0010F1DBF83690B7000200120CF
S2140821C0704700BF436913F0020F1DBFC1F3080133
S2140821D0C161002001207047436913F0010F05D044
S2140821E08369C3F308030B6000207047012070471B
S2140821F010B50E480E4B984700203E210D4B9847C9
S2140822000D4CA0470028FCD00C4B98470C4A0D4BA9
S2140822109A620D4CA0470028FCD010200B4B98471C
S2140822200B4B98470148024B984710BD00BD010567
S21408223095280800E92508003D2608004D260800D0
S214082240013F0D2000060E405D2608008525080083
S2140822507927080010B54FF40042134B5A600B203C
S214082260124CA0470C20A0470D20A0470E20A047E0
S2140822703B204FF060510E4CA04755204FF0605160
S214082280A04756204FF06051A04768200949A0474C
S2140822905C200949A04709484FF440714FF0006296
S2140822A0074B984710BD00BF501A0E406D26080011
S2140822B0692308007900002801000028000E0E4057
S2140822C03D2408004264B1F1805F16D004D8C1B13D
S2140822D0B1F1006F0AD013E0B1F1405F11D0B1F14F
S2140822E0605F0ED0B1F1205F0AD17047036F016FAF
S2140822F00B4023EA0203036702E0036F13430367F6
S21408230042607047416412F0010F14BF41660166CF
S21408231012F00A0F14BF0162416212F0020F02D0D7
S214082320C0F8801004E012F0080F18BFC0F8841038
S21408233041610160704700BF10B44164019C0CB154
S214082340416600E001660BB1016500E041650AB12F
S214082350016300E04163016101605DF8044B70476A
S214082360C06C7047806C704770B582B00D464409E3
S21408237004F5001404F20774660201F0F044B4F1A0
S214082380205F30D006D8B4F1006F0AD0B4F1805F71
S21408239018D049E0B4F1405F30D0B4F1605F2DD07A
S2140823A042E000F01F000124844030464FF00061F0
S2140823B022461F4B984715F0010F14BF7466346603
S2140823C0012032E000F01F000124844030464FF020
S2140823D080512246164B984715F0010F14BF7466B5
S2140823E03466012021E000F01F010124304604FA7B
S2140823F001F12A460F4B9847204616E000F01F01C9
S214082400012405F0605205EA04030093304604FAF6
S21408241001F1B2F1605F14BF00220122C5F3800308
S214082420054DA847204600E0002002B070BD00BF5A
S214082430C52208000523080039230800F0B583B034
S21408244007460E46154602F0F044B4F1205F26D043
S21408245006D8B4F1006F0AD0B4F1805F13D034E028
S214082460B4F1405F1FD0B4F1605F1CD02DE04FF090
S21408247000613246164B984715F0010F14BF7E666A
S2140824803E66012022E04FF080513246104B9847B6
S21408249015F0010F14BF7E663E66012016E00D4B50
S2140824A09847012012E005F0605205F001030093FA
S2140824B038463146B2F1605F14BF00220122C5F3E8
S2140824C08003054CA047012000E0002003B0F0BDC3
S2140824D0C522080005230800392308002DE9F04125
S2140824E004460E46104B9847054620460F4B98471D
S2140824F0054017D00E4F07F10C046C3754F80C3C07
S214082500B3420AD154F8081C294206D0236830463C
S214082510984754F8083C25EA0305BC4202D0103414
S214082520002DEBD1BDE8F081612308006523080083
S214082530F88A072008B502480B21024B984708BDC1
S214082540000E0E40DD24080008B502480C21024B98
S214082550984708BD00100E40DD24080008B502485C
S2140825600D21024B984708BD00120E40DD240800D6
S21408257008B502480E21024B984708BD00140E40C5
S214082580DD240800174B1A6B22F0700210431863FC
S2140825909B6E13F0080F09D14FF40063114901E050
S2140825A0013B19D08A6E12F0080FF9D00D4B1A6B42
S2140825B022F0030242F002021A63986E10F0080036
S2140825C00CD14FF40063074901E0013B08D08A6E3E
S2140825D012F0080FF9D070470120704700207047A6
S2140825E00120704700060E4038B111490B6A114A9F
S2140825F01A40114B13430B6270470D4A136A23F4B3
S2140826005C1323F0030343F45C1343F0010309024D
S21408261089B20B431362936E13F0010FFBD0044A82
S214082620136A43F09B7343F480331362704700BF0A
S21408263000060E40FCFFC8FE02003701024B986EEB
S21408264000F48030704700BF00060E404FF000527E
S214082650014B9A62704700BF00060E40024B986E08
S21408266000F00200704700BF00060E402C2820D855
S2140826701F280DD8124B9A69012383401A409342AB
S21408268019D0012303FA00F00D4B1861002070479B
S2140826900B4BD3F808212038012383401A40934275
S2140826A00BD0012303FA00F0054BC3F80001002005
S2140826B0704701207047002070470020704700BF11
S2140826C000060E40FEE700BF10B51E4B1E4A9A4293
S2140826D003D01E4B1B4A9A4204D31D4B1D4A9A42EE
S2140826E00FD31AE01C4B1D4CE41A24F003040434E0
S2140826F00023144814495A581A500433A342FAD1EE
S214082700EBE7174B1749C91A21F003011A1D1144A4
S214082710002243F8042F8B42FBD1134A22F0604371
S21408272023F07F0311498B6002F16042B2F5801FE7
S21408273003D28A6842F000528A600D4B98470D4BC8
S2140827409847FEE700000720A8A40800D40807203A
S214082750D88B0720D808072004000720D7080720AA
S214082760D4080720D38B07200000080000ED00E0FF
S214082770853808006D2908003E4B1B6B03F00303E1
S214082780032B5FD8DFE803F0020E2B2B3A4B5B696E
S21408279013F0800F14BF4FF400424FF4FA42374B41
S2140827A01A604FE0334B1B6A13F0807F03D0344A1D
S2140827B0324B1A6046E0334A304B1A602D4B1B6A80
S2140827C003F07003102B02D0202B04D03AE02E4AD8
S2140827D02A4B1A6036E02A4A284B1A6032E0254B04
S2140827E01B6A13F0807F03D0254A244B1A6012E038
S2140827F0244A224B1A601F4B1B6A03F07003102BE7
S21408280002D0202B04D006E01F4A1C4B1A6002E0B8
S2140828101B4A1A4B1A60174B1B6B03F00303022B59
S2140828200DD1144B986A996A144BC0F30A401A687B
S21408283000FB0222C9B2B2FBF1F21A6002E0134AA8
S2140828400E4B1A600B4B1B6B03F07003702B07D1F3
S2140828500A4B1A680E49A1FB020252081A60704712
S214082860044B196B054BC1F302111A68CA401A606B
S214082870704700BF00060E40101A0E400C000720D6
S214082880001BB70000093D0000127A00001C4E0E1F
S214082890ABAAAAAA1B4B984206D800231A4A13606A
S2140828A002F5007213607047184B984207D84FF429
S2140828B08073154A136002F5007213607047144B54
S2140828C0984207D84FF400730F4A136002F5007257
S2140828D0136070470F4B984207D84FF440730A4A64
S2140828E0136002F50072136070470B4B984294BF52
S2140828F04FF480634FF4A063034A136002F5007236
S21408290013607047BFEA2101000A0E407FF0FA0202
S214082910FF8FD003FFB3C4047F4A5D05094B1B68CD
S21408292013B9094A074B1A60064B1B681A18074959
S214082930914204DB1046034A1060184670474FF071
S214082940FF307047688B0720D8AB0720FC7F08202D
S2140829504FF0FF30704700BF4FF400534B60002025
S214082960704700BF012070470020704710B584B03C
S214082970194B9847194B9847194B9847194B98473E
S214082980194B9847194B9847022300930023019345
S21408299002930393164817494FF48062164CA047D3
S2140829A0012802D01548164B9847012300930023A8
S2140829B0019302930393134813494FF480620E4C15
S2140829C0A047012802D011480D4B9847104B98474E
S2140829D0002004B010BD00BFF121080055220800F1
S2140829E049050800E1090800FD080800BD090800B7
S2140829F0ED070800EC9F0800D1130800FC9F0800AC
S214082A00D5380800B107080034A008004CA0080014
S214082A10D915080081F0004102E000BF83F00043AA
S214082A2030B54FEA41044FEA430594EA050F08BF5C
S214082A3090EA020F1FBF54EA000C55EA020C7FEA20
S214082A40645C7FEA655C00F0E2804FEA5454D4EB9D
S214082A505555B8BF6D420CDD2C4480EA020281EA67
S214082A60030382EA000083EA010180EA020281EA9F
S214082A700303362D88BF30BD11F0004F4FEA0131F1
S214082A804FF4801C4CEA113102D0404261EB410100
S214082A9013F0004F4FEA03334CEA133302D0524286
S214082AA063EB430394EA050F00F0A780A4F1010442
S214082AB0D5F1200E0DDB02FA0EFC22FA05F280187C
S214082AC041F1000103FA0EF2801843FA05F3594162
S214082AD00EE0A5F120050EF1200E012A03FA0EFCE1
S214082AE028BF4CF0020C43FA05F3C01851EBE3710B
S214082AF001F0004507D54FF0000EDCF1000C7EEB28
S214082B0000006EEB0101B1F5801F1BD3B1F5001F65
S214082B100CD349085FEA30004FEA3C0C04F1010484
S214082B204FEA445212F5800F80F09A80BCF1004FAD
S214082B3008BF5FEA500C50F1000041EB045141EA2F
S214082B40050130BD5FEA4C0C404141EB010111F430
S214082B50801FA4F10104E9D191F0000F04BF0146DB
S214082B600020B1FA81F308BF2033A3F10B03B3F1B9
S214082B7020020CDA0C3208DD02F1140CC2F10C0249
S214082B8001FA0CF021FA02F10CE002F11402D8BFA7
S214082B90C2F1200C01FA02F120FA0CFCDCBF41EA73
S214082BA00C019040E41AA2BF01EB0451294330BD42
S214082BB06FEA04041F3C1CDA0C340EDC04F114041F
S214082BC0C4F1200220FA04F001FA02F340EA0300F6
S214082BD021FA04F345EA030130BDC4F10C04C4F13C
S214082BE0200220FA02F001FA04F340EA030029461C
S214082BF030BD21FA04F0294630BD94F0000F83F466
S214082C00801306BF81F480110134013D4EE77FEA48
S214082C10645C18BF7FEA655C29D094EA050F08BF94
S214082C2090EA020F05D054EA000C04BF1946104675
S214082C3030BD91EA030F1EBF0021002030BD5FEAB9
S214082C40545C05D14000494128BF41F0004130BDE1
S214082C5014F580043CBF01F5801130BD01F0004535
S214082C6045F0FE4141F470014FF0000030BD7FEAA8
S214082C70645C1ABF194610467FEA655C1CBF0B46A3
S214082C80024650EA013406BF52EA033591EA030FBA
S214082C9041F4002130BD00BF90F0000F04BF0021B2
S214082CA0704730B54FF4806404F132044FF00005E5
S214082CB04FF0000150E700BF90F0000F04BF00215E
S214082CC0704730B54FF4806404F1320410F00045C4
S214082CD048BF40424FF000013EE700BF42004FEABF
S214082CE0E2014FEA31014FEA02701FBF12F07F433C
S214082CF093F07F4F81F06051704792F0000F14BF39
S214082D0093F07F4F704730B54FF4607401F000457C
S214082D1021F0004120E700BF50EA010208BF7047D3
S214082D2030B54FF000050AE050EA010208BF7047C8
S214082D3030B511F0004502D5404261EB41014FF431
S214082D40806404F132045FEA915C3FF4DCAE4FF035
S214082D5003025FEADC0C18BF03325FEADC0C18BF1C
S214082D60033202EBDC02C2F1200300FA03FC20FA6D
S214082D7002F001FA03FE40EA0E0021FA02F11444BA
S214082D80C1E600BF70B54FF0FF0C4CF4E06C1CEACF
S214082D9011541DBF1CEA135594EA0C0F95EA0C0F44
S214082DA000F0DEF82C4481EA030621EA4C5123EAB7
S214082DB04C5350EA013518BF52EA033541F48011E6
S214082DC043F4801338D0A0FB02CE4FF00005E1FB99
S214082DD002E506F00042E0FB03E54FF00006E1FBE3
S214082DE003569CF0000F18BF4EF0010EA4F1FF0426
S214082DF0B6F5007F64F5407404D25FEA4E0E6D4166
S214082E0046EB060642EAC62141EA55514FEAC52076
S214082E1040EA5E504FEACE2EB4F1FD0C88BFBCF5F2
S214082E20E06F1ED8BEF1004F08BF5FEA500E50F1A3
S214082E30000041EB045170BD06F0004646EA010169
S214082E4040EA020081EA0301B4EB5C04C2BFD4EB9B
S214082E500C0541EA045170BD41F480114FF0000E94
S214082E60013C00F3AB8014F1360FDEBF002001F002
S214082E70004170BDC4F10004203C35DA0C341BDC7C
S214082E8004F11404C4F1200500FA05F320FA04F04E
S214082E9001FA05F240EA020001F0004221F0004182
S214082EA010EBD37021FA04F642EB06015EEA430EF5
S214082EB008BF20EAD37070BDC4F10C04C4F1200525
S214082EC000FA04F320FA05F001FA04F240EA0200D8
S214082ED001F0004110EBD37041F100015EEA430EA9
S214082EE008BF20EAD37070BDC4F1200500FA05F2C9
S214082EF04EEA020E20FA04F301FA05F243EA020348
S214082F0021FA04F001F0004121FA04F220EA020056
S214082F1000EBD3705EEA430E08BF20EAD37070BD9C
S214082F2094F0000F0FD101F00046400041EB01017C
S214082F3011F4801F08BF013CF7D041EA060195F05E
S214082F40000F18BF704703F00046520043EB030318
S214082F5013F4801F08BF013DF7D043EA0603704705
S214082F6094EA0C0F0CEA135518BF95EA0C0F0CD010
S214082F7050EA410618BF52EA4306D1D181EA030156
S214082F8001F000414FF0000070BD50EA410606BF50
S214082F901046194652EA430619D094EA0C0F02D195
S214082FA050EA013613D195EA0C0F05D152EA0336DA
S214082FB01CBF104619460AD181EA030101F00041F8
S214082FC041F0FE4141F470014FF0000070BD41F041
S214082FD0FE4141F4780170BD70B54FF0FF0C4CF41B
S214082FE0E06C1CEA11541DBF1CEA135594EA0C0F3A
S214082FF095EA0C0F00F0A7F8A4EB050481EA030E87
S21408300052EA03354FEA013100F088804FEA03336D
S2140830104FF0805545EA131343EA12634FEA02223B
S21408302045EA111545EA10654FEA00260EF00041FC
S2140830309D4208BF964244F1FD0404F5407402D24E
S2140830405B084FEA3202B61A65EB03055B084FEADF
S21408305032024FF480104FF4002CB6EB020E75EBDC
S214083060030E22BFB61A754640EA0C005B084FEA04
S2140830703202B6EB020E75EB030E22BFB61A754681
S21408308040EA5C005B084FEA3202B6EB020E75EBCC
S214083090030E22BFB61A754640EA9C005B084FEA44
S2140830A03202B6EB020E75EB030E22BFB61A754651
S2140830B040EADC0055EA060E18D04FEA051545EA40
S2140830C016754FEA06164FEAC30343EA52734FEAE9
S2140830D0C2025FEA1C1CC0D111F4801F0BD141EA62
S2140830E000014FF000004FF0004CB6E711F4801FC7
S2140830F004BF01430020B4F1FD0C88BFBCF5E06FA7
S2140831003FF6AFAEB5EB030C04BFB6EB020C5FEAB6
S214083110500C50F1000041EB045170BD0EF0004E0B
S2140831204EEA113114EB5C04C2BFD4EB0C0541EA3D
S214083130045170BD41F480114FF0000E013C90E63A
S21408314045EA060E8DE60CEA135594EA0C0F08BFFE
S21408315095EA0C0F3FF43BAF94EA0C0F0AD150EAFD
S21408316001347FF434AF95EA0C0F7FF425AF104690
S21408317019462CE795EA0C0F06D152EA03353FF4B8
S214083180FDAE1046194622E750EA410618BF52EA35
S21408319043067FF4C5AE50EA41047FF40DAF52EA09
S2140831A043057FF4EBAE12E74FEA4102B2F1E04383
S2140831B024BFB3F5001CDCF1FE5C0DD901F0004C11
S2140831C04FEAC0024CEA5070B2F1004F40EB830061
S2140831D008BF20F00100704711F0804F21D113F18D
S2140831E03872BCBF01F00040704741F480114FEAC6
S2140831F05252C2F11802C2F1200C10FA0CF320FA4F
S21408320002F018BF40F001004FEAC1234FEAD3236B
S21408321003FA0CFC40EA0C0023FA02F34FEA4303D5
S214083220CCE77FEA625307D150EA01331EBF4FF05E
S214083230FE4040F44000704701F0004040F0FE4079
S21408324040F40000704700BF80F0004002E000BF76
S21408325081F0004142001FBF5FEA410392EA030F74
S2140832607FEA226C7FEA236C6AD04FEA1262D2EBBE
S2140832701363C1BFD218414048404140B8BF5B42C3
S214083280192B88BF704710F0004F40F4000020F05C
S2140832907F4018BF404211F0004F41F4000121F072
S2140832A07F4118BF494292EA030F3FD0A2F10102BC
S2140832B041FA03FC10EB0C00C3F1200301FA03F1FA
S2140832C000F0004302D5494260EB4000B0F5000F1D
S2140832D013D3B0F1807F06D340084FEA310102F1DC
S2140832E00102FE2A51D2B1F1004F40EBC25008BF8E
S2140832F020F0010040EA03007047490040EB000058
S21408330010F4000FA2F10102EDD1B0FA80FCACF186
S214083310080CB2EB0C0200FA0CF0AABF00EBC25085
S21408332052421843BCBFD0401843704792F0000F73
S21408333081F4000106BF80F400000132013BB5E7C6
S2140833404FEA41037FEA226C18BF7FEA236C21D03C
S21408335092EA030F04D092F0000F08BF08467047A1
S21408336090EA010F1CBF0020704712F07F4F04D16F
S214083370400028BF40F00040704712F100723CBF82
S21408338000F50000704700F0004343F0FE4040F4AC
S214083390000070477FEA226216BF08467FEA23636A
S2140833A00146420206BF5FEA412390EA010F40F455
S2140833B0800070474FF0000304E000BF10F00043A1
S2140833C048BF40425FEA000C08BF704743F0964388
S2140833D001464FF000001CE050EA010208BF7047A3
S2140833E04FF000030AE000BF50EA010208BF70472A
S2140833F011F0004302D5404261EB41015FEA010C3F
S21408340002BF84460146002043F0B64308BFA3F136
S2140834108053A3F50003BCFA8CF2083AA3EBC25318
S21408342010DB01FA02FC634400FA02FCC2F1200237
S214083430BCF1004F20FA02F243EB020008BF20F06E
S2140834400100704702F1200201FA02FCC2F12002D4
S21408345050EA4C0021FA02F243EB020008BF20EAC9
S214083460DC7070474FF0FF0C1CEAD0521EBF1CEAF7
S214083470D15392EA0C0F93EA0C0F6FD01A4480EAE5
S214083480010C400218BF5FEA41211ED04FF00063CE
S21408349043EA501043EA5111A0FB01310CF00040FA
S2140834A0B1F5000F3EBF490041EAD3715B0040EA20
S2140834B0010062F17F02FD2A1DD8B3F1004F40EBF0
S2140834C0C25008BF20F00100704790F0000F0CF0C3
S2140834D0004C08BF49024CEA502040EA51207F3A87
S2140834E0C2BFD2F1FF0340EAC250704740F4000062
S2140834F04FF00003013A5DDC12F1190FDCBF00F053
S21408350000407047C2F10002410021FA02F1C2F100
S214083510200200FA02FC5FEA310040F1000053EA9C
S2140835204C0308BF20EADC70704792F0000F00F0EA
S214083530004C02BF400010F4000F013AF9D040EAF0
S2140835400C0093F0000F01F0004C02BF490011F484
S214083550000F013BF9D041EA0C018FE70CEAD15382
S21408356092EA0C0F18BF93EA0C0F0AD030F0004C02
S21408357018BF31F0004CD8D180EA010000F00040B6
S214083580704790F0000F17BF90F0004F084691F074
S214083590000F91F0004F14D092EA0C0F01D14202AE
S2140835A00FD193EA0C0F03D14B0218BF084608D177
S2140835B080EA010000F0004040F0FE4040F40000C1
S2140835C0704740F0FE4040F4400070474FF0FF0C54
S2140835D01CEAD0521EBF1CEAD15392EA0C0F93EA9B
S2140835E00C0F69D0A2EB030280EA010C49024FEAED
S2140835F0402037D04FF0805343EA111143EA1013A6
S2140836000CF000408B4238BF5B0042F17D024FF45D
S214083610000C8B4224BF5B1A40EA0C00B3EB510F38
S21408362024BFA3EB510340EA5C00B3EB910F24BF21
S214083630A3EB910340EA9C00B3EBD10F24BFA3EBA6
S214083640D10340EADC001B0118BF5FEA1C1CE0D16E
S214083650FD2A3FF650AF8B4240EBC25008BF20F021
S214083660010070470CF0004C4CEA50207F32C2BF75
S214083670D2F1FF0340EAC250704740F400004FF012
S2140836800003013A37E792F0000F00F0004C02BF43
S214083690400010F4000F013AF9D040EA0C0093F00D
S2140836A0000F01F0004C02BF490011F4000F013B67
S2140836B0F9D041EA0C0195E70CEAD15392EA0C0FCF
S2140836C008D142027FF47DAF93EA0C0F7FF470AF07
S2140836D0084676E793EA0C0F04D14B023FF44CAF4A
S2140836E008466EE730F0004C18BF31F0004CCAD1DF
S2140836F030F000427FF45CAF31F000437FF43CAF1B
S2140837005FE700BF4FF0FF3C06E000BF4FF0010C3C
S21408371002E000BF4FF0010C4DF804CD4FEA40021E
S2140837204FEA41037FEA226C18BF7FEA236C11D068
S21408373001B052EA530C18BF90EA010F58BFB2EB1B
S214083740030088BFC81738BF6FEAE17018BF40F09B
S214083750010070477FEA226C02D15FEA402C05D14F
S2140837607FEA236CE4D15FEA412CE1D05DF8040BD4
S214083770704700BF844608466146FFE70FB5FFF767
S214083780C9FF002848BF10F1000F0FBD4DF808ED1F
S214083790FFF7F4FF0CBF012000205DF808FB00BF10
S2140837A04DF808EDFFF7EAFF34BF012000205DF86A
S2140837B008FB00BF4DF808EDFFF7E0FF94BF0120B7
S2140837C000205DF808FB00BF4DF808EDFFF7D2FFB4
S2140837D094BF012000205DF808FB00BF4DF808EDF7
S2140837E0FFF7C8FF34BF012000205DF808FB00BFC4
S2140837F04FEA4002B2F1FE4F0FD34FF09E03B3EBF1
S21408380012620DD94FEA002343F0004310F0004F30
S21408381023FA02F018BF404270474FF00000704786
S21408382012F1610F01D1420205D110F0004008BF25
S2140838306FF0004070474FF00000704742000ED20D
S214083840B2F1FE4F0BD34FF09E03B3EB126209D4CE
S2140838504FEA002343F0004323FA02F070474FF084
S2140838600000704712F1610F01D1420202D14FF0F9
S214083870FF3070474FF00000704700BF002101F08E
S21408388017BA00BF70B50F4E0F4D761BB61007D08F
S214083890043D0024013455F8043F9847A642F9D160
S2140838A00A4E0B4D06F0EAFD761BB61008D0043D0E
S2140838B00024013455F8043F9847A642F9D170BD54
S2140838C070BD00BF88A4080088A4080090A408005B
S2140838D088A408000FB410B5074B82B004AC54F89F
S2140838E0042B186823468168019401F025FA02B073
S2140838F0BDE8104004B07047580407200FB410B550
S214083900074B82B004AC54F8042B18682346416869
S214083910019402F079F802B0BDE8104004B0704790
S21408392058040720844641EA000313F0030349D1EC
S214083930403A23D30B6803604B6843608B68836008
S214083940CB68C3600B6903614B6943618B6983610C
S214083950CB69C3610B6A03624B6A43628B6A8362F4
S214083960CB6AC3620B6B03634B6B43638B6B8363DC
S214083970CB6BC36340304031403ADBD230320BD396
S2140839800B6803604B6843608B688360CB68C360D2
S21408399010301031103AF3D20C3205D351F8043BEC
S2140839A040F8043B043AF9D2043208D0D2071CBFC8
S2140839B011F8013B00F8013B01D30B8803806046F1
S2140839C0704700BF082A13D38B07B1D010F0030343
S2140839D0AED0C3F10403D21ADB071CBF11F8013BB3
S2140839E000F8013BA4D331F8023B20F8023B9FE7DE
S2140839F0043AD9D3013A11F8013B00F8013BF9D251
S214083A000B7803704B7843708B78837060467047EA
S214083A10F0B4840743D0541E002A3ED0CDB20346E5
S214083A2003E0621E002C38D0144603F8015B9A07A0
S214083A30F7D1032C2AD9CDB245EA05250F2C45EA3D
S214083A40054515D9A4F110073F0903F1100606EB42
S214083A5007161A46156055609560D5601032B24252
S214083A60F8D104F00F040137032C03EB07130DD924
S214083A701E462246043A032A46F8045BFAD8221F52
S214083A8022F003020432134404F003042CB1C9B232
S214083A901C4403F8011BA342FBD1F0BC7047144634
S214083AA00346C6E700290CBF022200224FF48063B3
S214083AB000F000B82DE9F0413C4D04462D688846D4
S214083AC016461F4615B1AB6B002B4FD0022E30D8CA
S214083AD0002F2EDB2846214602F078FDA389002217
S214083AE06260A2611A0628D423F083039BB2022ED2
S214083AF0A3812DD0B8F1000F3CD0012E13D09BB275
S214083B0003F008002A4A80B2EA63C4F80080C4F8C2
S214083B101080676178B113F0030F18BF0027A760FD
S214083B200020BDE8F08143F001037A42A381A26138
S214083B30E5E74FF0FF30BDE8F0812846216902F03E
S214083B407FFFA389022E23F083039BB2A381D1D1E2
S214083B50002004F1430243F0020300250121A3815B
S214083B60A560226022616161BDE8F081284602F006
S214083B705BFDABE7002F08BF4FF48067384603F0BD
S214083B803DFE804628B1A38943F080039BB2A381FB
S214083B90B3E74FF4806003F031FE804618B9A38976
S214083BA04FF0FF30D5E74FF48067ECE7580407205E
S214083BB01D66080020F0030110F00300C0F10000A5
S214083BC051F8043B00F1040C4FEACC0C6FF00002ED
S214083BD01CBF22FA0CF213434FF0010C4CEA0C2CD3
S214083BE04CEA0C4CA3EB0C0222EA030212EACC12B3
S214083BF004BF51F8043B0430F4D013F0FF0F1FBF86
S214083C00013013F47F4F013013F47F0F18BF0130D3
S214083C10704700BF30B4002A4AD040EA010313F0C8
S214083C2003032DD1032A2BD904680D68AC4227D18B
S214083C30043A3DD0A4F1013525EA040414F0803F87
S214083C403CD10C4603460EE05B686468A3F1013578
S214083C50A34225EA030513D1043A29D015F0803F7C
S214083C6029D103460C46032A00F1040001F1040199
S214083C70EAD8551E2AB918792279801A30BC7047B6
S214083C80551E03780A7893421AD1DDB1B3B16C1C7D
S214083C900C448B1C014604E0A3420CD001330028D8
S214083CA0ECD011F8010F13F8012C9042F4D0E4E799
S214083CB0104630BC7047002030BC70471846DDE719
S214083CC01846DAE72846D9E740EA01039B0770B4A6
S214083CD02AD1032A28D90C460346214654F8045B01
S214083CE0A5F1013626EA050616F0803F05D1043A06
S214083CF0032A43F8045B2146EFD89AB10C78013AB8
S214083D001C7001333CB16AB111F8014F013A03F84F
S214083D10014B002CF7D12AB11A44002103F8011BE5
S214083D209342FBD170BC70470346E6E72DE9F041A5
S214083D300D46904604F0F6FB06460F46B8F1000F0F
S214083D400FD0C5F30A53C3F16B03002B09DD1C051E
S214083D5004F17F5303F540130022FFF713F8BDE87C
S214083D60F08130463946BDE8F08100BF000000000B
S214083D702DE9F04F9FB00D46199183460592002015
S214083D800A460021CDE9020100231A93164612F8C6
S214083D90014B2D2C00F25881DFE814F0390056014B
S214083DA056015601560156015601560156017C0029
S214083DB07C007C007C007C005601560156015601AA
S214083DC0560156015601560156015601560156012E
S214083DD05601560156015601560156017C005601F9
S214083DE0560156015601560156015601560156010E
S214083DF056014D0056017E00002301219A460B917C
S214083E00002840F051810A9A002A40F04D8100208F
S214083E104FF000084FF0000919950790059909B169
S214083E20199B0B60079A002A40F09E804046494638
S214083E301FB0BDE8F08F00230793731C199374789E
S214083E40002CE4D0302C1E4600F003810023069692
S214083E500A93A4F130030027092BB9463E461ED81C
S214083E600698431C0EE009EB890904EB4909A9F1F9
S214083E7030091993984613F8014B0136A4F130021D
S214083E80092A0ED8082EEEDD07EB870704EB47074E
S214083E90303FEEE7199279E701220792CDE7DDF881
S214083EA01880584603F036FCD0F800A0584603F0B1
S214083EB031FC0068FFF77EFE514602464046FFF793
S214083EC0A9FE8046002800F04681002003460B9095
S214083ED0B24624F02002452A00F0E2800021BAF11A
S214083EE0000F55D0CB1A48460893FEF7D5FEBAF110
S214083EF0100FB4BFD0464FF01008002E08BF564625
S214083F00B8F1090FCDE9020113DDA04B03EBC80396
S214083F1053E91223FEF736FF044638460D46FEF7E9
S214083F20BBFE02460B4620462946FEF779FDCDE93C
S214083F300201BAF10F0F00F32B810899002900F04F
S214083F40AC8040F38185089A162A00F3F184DDE9EF
S214083F5002238E49089801EBC00ADAE90001FEF749
S214083F6011FF8046894659E7404609F100411FB0CF
S214083F70BDE8F08F3346A4F13102082A40F23D83AB
S214083F8024F02002452A18463FF436AF01210B914B
S214083F90002871D10A9B002B6ED10B9800287FF45D
S214083FA036AF493C252C3FF632AF01A151F824F034
S214083FB0754608000F3E08000F3E08000F3E080032
S214083FC00F3E08003D4608000F3E08000F3E08005A
S214083FD00F3E08000F3E08000F3E08000F3E080080
S214083FE00F3E08000F3E08000F3E08000F3E080070
S214083FF00F3E08000F3E08000F3E08000F3E080060
S2140840000F3E08000F3E08000F3E08000F3E08004F
S2140840100F3E08000F3E08000F3E08000F3E08003F
S2140840200F3E08000F3E08000F3E08000F3E08002F
S214084030754608000F3E08000F3E08000F3E0800B1
S2140840400F3E08003D4608000020302C07907FF4FD
S214084050FDAE7378582B00F03783782B00F0348346
S21408406001361996334616F8014B302CF9D01CB198
S214084070069301230A93ECE64FF000084FF0000978
S214084080CCE66FF000434FF0FF3003930290220710
S21408409042BF039941F000410391DDE90289BDE67C
S2140840A0BAF1000F3FF4ACAE199D6A1C19926C78F1
S2140840B02B2C00F04B822D2C40F0458201210891D4
S2140840C0AA1C1992AC78A4F13002092A00F2E581FC
S2140840D0302C06D1199A0132199212F8014B302C5D
S2140840E0FAD0A4F13102082A3FF6F8AE199AA4F1DC
S2140840F0300102F10108CDF8648054780E92A4F1DC
S2140841003002092A11D80E9A02F1020C624601EB17
S2140841108101199204EB4101904612F8014B30399F
S214084120A4F1300CBCF1090FF1D90E9AC2EB0808BD
S214084130B8F1080F00F3F48344F61F629142A8BF53
S2140841401146089A002A3FF4CAAE4942BAF1000F4F
S2140841507FF4C8AE1CE75846199C03F0DBFA0068E3
S214084160FFF728FD23181993245C002E40F0C4811D
S214084170302C7FF4FFAE1A46334600E00A46511C40
S214084180199154780133302CF8D0F4E680A308004F
S214084190089BC8EB0A089844B8F1000F40F36B83F5
S2140841A018F00F010AD0DDE90223A74800EBC10189
S2140841B0D1E90001FEF7E6FDCDE9020138F00F046B
S2140841C040F0CA8100200A90CDF800900699324641
S2140841D05346584603F028FF0B90002800F0D78275
S2140841E0089B08990020002BC3F10003A8BF0346CC
S2140841F021EAE17106900E930F9107460B9A5846EE
S214084200516803F097FE0646002800F0CE820B9809
S214084210036906F10C009A1C0B9B920003F10C0133
S214084220FFF780FBDDE90201CDE90801DDE9082397
S2140842301BA81CA98DE80300584604F0EFF91A904D
S214084240002800F013845846012103F087FF07462C
S214084250002800F0AA821B9B002BC0F21181DDF813
S21408426038900F9D99440A9A1C999B1A0B446FF430
S2140842707F729342C1F1360A80F2DA80D21A1F2A78
S214084280C2EB0A0A00F301814FF0010808FA02F8A7
S21408429000230C930A985544CA44CA45B4BF5346EB
S2140842A04B460544AB42A8BF2B46002B04DDC3EBA8
S2140842B00A0AED1AC3EB09090E99B1B139465846F0
S2140842C00E9A03F0F3FF0746002800F06E82584661
S2140842D039461A9A03F04CFF0446002800F0658217
S2140842E058461A9903F04CFE1A94BAF1000F08DDE6
S2140842F0524658461A9904F027F81A90002800F0F3
S214084300B5830F9A42B1314658460F9A03F0CEFF4E
S2140843100646002800F04982002D08DD31462A4668
S214084320584604F011F80646002800F03E82B9F117
S214084330000F08DD39464A46584604F005F8074691
S214084340002800F0328258461A99324604F07EF861
S2140843500690002800F0298206990023D1F80CA0C0
S214084360CB60394604F04EF80028C0F2CC8300F043
S21408437089830698394604F0AFF900224FF0804347
S21408438004460D4605F0B8FA002865D0BAF1000FC5
S21408439000F08F802D4D002422462B46CDE90C23B5
S2140843A0DDF80C90DFF8AC80294B09EA0808984538
S2140843B000F0C0810A9A82B1B8F1D46F0DD820A354
S2140843C0D3E90023DDE90C0105F096FA002840F051
S2140843D01D8105F1D663C8EB0305DDE9080104F085
S2140843E0A1F802460B4620462946FEF7CBFC0246B5
S2140843F00B46DDE90801FEF713FBCDE90201039C35
S2140844000A9921B9134B2340984500F0EE81584687
S2140844101A9903F0B5FD5846314603F0B1FD5846E3
S214084420394603F0ADFD5846069903F0A9FDE5E6C2
S21408443000230C934FF001082CE700BFAFF3008071
S2140844400000C0FFFFFFDF4180A308000000F03F28
S2140844500000E07F0000F07F204629460022A84B97
S214084460FEF790FCCDE90C01BAF1000F1CD101F162
S214084470004110901191DDE91045DDF80C9091E7A8
S2140844800F99DDF83890CD1AEDE69E4C4FF00108EE
S214084490E41A08FA04F40C94FCE619950021BAF11B
S2140844A0000F7FF41FAD73E5DDE90C23CDE910237B
S2140844B0E1E7029B002B40F093800398C0F31303B8
S2140844C08146002B40F092802046294600228E4BDB
S2140844D005F008FA002840F05683204629460022B0
S2140844E0874BFEF74FFCCDE90C0101F10041169011
S2140844F01791DDE9164555E740464346B246A4F10E
S2140845003002092A25D8199C0130002A00F0AF810C
S2140845100128034400F0A0815044013806E009EB66
S21408452089094FEA4909824500F097810AF1010A8C
S2140845300AF1FF310829F2DDBAF1100FDCBF07EBEC
S21408454087077F00EFE700220892BCE50021089164
S214084550B6E501220B92BCE4B4F59A7F00F3178106
S2140845602411012CDFF8C88140F32A83DDE9020113
S2140845704546002714F0010F07F101074FEA6404C7
S21408458003D0D5E90023FEF7FDFB012C05F108054D
S214084590F0DCCDE90201039908EBC707A1F15471D5
S2140845A00391DDE90223D7E90001FEF7EBFBCDE92D
S2140845B00201039A039922F000431B0D534A1B0578
S2140845C0934200F2E480A2F58012934240F2D4822D
S2140845D04F4B00204FF0FF3103930A900291F3E50A
S2140845E00299DDF80C90012900F0C981464900209F
S2140845F00024484DCDE90C01D4E61999A4F13002FF
S21408460006910C464FF0000A01207EE7DDE90C0112
S21408461005F0B8F9002800F0AD81FEF73DFBCDE9BE
S2140846200C01BAF1000F40F0A0810D9A0C9902F126
S214084630004214911592DDE91445CAE636481999E0
S21408464009E011F8013FA3F14104192C98BF203363
S21408465093427FF4DCAB10F8012F002AF1D14B1CF3
S21408466019934B78282B00F0E1822C4A00230392FA
S214084670029312E52A48199909E011F8013FA3F1B7
S2140846804104192C98BF203393427FF4C0AB10F82E
S214084690012F002AF1D11991224C084609E010F89A
S2140846A0013FA3F14105192D98BF2033934240F0EE
S2140846B0848214F8012F002AF1D1013019901A4A81
S2140846C0002303920293E8E407991AAB019100933A
S2140846D0584619A9154A1BAB02F0A4FC10F00705AA
S2140846E004463FF4C9AC062D40F057810136002237
S2140846F019964FF000084FF000090792FFF78EBB97
S2140847000000E03FE3FBFFFF0000F03F0000A07C56
S214084710FFFFEF7F0000F0BFB7A008000000F8FF1B
S214084720ABA00800AFA008000000F07F98A0080023
S21408473048A40800A9F15479CDF80C90DDE90201E7
S21408474003F0F0FE02460B4620462946FEF71AFB03
S21408475002460B46DDE90201FEF762F9CDE90201E1
S2140847600399AD4A21F000431B0D1B059342DDE972
S2140847700801CDE9120140F2D680A84B1399994258
S21408478010D0A64B4FF0FF30039302903FE6A44BA1
S2140847900020039302902223DDE90289CBF800303B
S2140847A0FFF73CBB129A0132EBD1B2461A999C4AE3
S2140847B02223002003920290CBF80030DDE902891C
S2140847C0584603F0DDFB5846514603F0D9FB5846D9
S2140847D0394603F0D5FB58460B9903F0D1FB5846EB
S2140847E0069903F0CDFBFFF719BBDDE90C0105F0D0
S2140847F0A1F8FEF761FA02460B46DDE90C01FEF762
S2140848000DF980468946BAF1000F11D1029A7AB995
S214084810C4F3130464B97AA3D3E9002305F062F855
S21408482000283FF4F4ADB246DDE902891A99C7E7D5
S2140848304046494674A3D3E9002305F053F80028F8
S214084840F1D14046494672A3D3E9002305F068F83B
S21408485000283FF4DCADE6E75046082800F1010AD8
S21408486000F3078109EB890902EB49090020621C5D
S2140848701992647843E63FF4A5ACC8F1000414F036
S2140848800F030AD0DDE90201664A02EBC303D3E947
S2140848900023FEF7A1FBCDE9020124113FF492ACF8
S2140848A01F2C34DC14F0100F14BF6A230023002CCE
S2140848B00A930EDDDDE902015B4DE30703D5D5E972
S2140848C00023FEF75FFA641005F10805F5D1CDE977
S2140848D002010A9890B10399C1F30A53C3F16B0316
S2140848E0002B0A460ADD1F2B40F3BC810020342B20
S2140848F0029040F3BF814FF05C710391DDE902013D
S2140849000022002304F0E4FF00283FF45DAC2223D5
S214084910CBF800304FF000084FF00009FFF77EBADA
S21408492044F61F610DE4039901F15474039467E596
S2140849300899CAF1250399423FF72AACDDE9022314
S214084940384CCAF10F0504EBC501D1E90001FEF7A2
S21408495019FA089A551B04EBC504D4E90023FEF798
S21408496011FA80468946FFF759BADDE90C01CDE908
S214084970140160E62D490020CDE90C0151E64A46AF
S214084980002A7FF433AEB2462223CBF800301A99B9
S2140849904FF000084FF0000912E71A9A3AB11CA81F
S2140849A0352103F0C1FE58461A9903F0E9FA1B9B15
S2140849B0062D3FF66CAB01A050F825F0F14908002B
S2140849C0314A0800E5490800D9490800834008002C
S2140849D0314A0800F1490800114900220391029261
S2140849E0FFF755BB1C9A1D9B02920393FFF74FBB1C
S2140849F0002103910291FFF74ABB00BFAFF3008086
S214084A009535A094FFFFCF3F9535A094FFFFDF3F75
S214084A1035E5AF350000E03FFFFF9F7CFFFFEF7FE7
S214084A200000F07F80A30800D0A008000000F03F38
S214084A301D9A1C9803F2334322F4801242EA03526A
S214084A4002900392FFF723BB089B1633FFF6A0AB32
S214084A50DDE902018D4B089AA3EBC20ADAE90023C6
S214084A60FEF7BAFA80468946FFF7D8B9B246014635
S214084A709DE6BAF1100FDCBF07EB870702EB470786
S214084A800020F4E65546C446B246DDE90889002DFE
S214084A9000F08280039A7E4BC2F31301994200F01D
S214084AA0A3800C9B002B00F08380039803420FD052
S214084AB0DDE902010A9A002D00F08480FFF736F936
S214084AC002460B4640464946FDF7AAFF80468946F9
S214084AD00A9BB3B16F48002213901292404649468B
S214084AE0DDE91223FEF74EF980468946CDE90289AC
S214084AF0039B33B9029820B922231A99CBF80030C1
S214084B005EE61A995CE65546DDE90889B246002D48
S214084B10DED1029A002ADBD10398C0F313030446B9
S214084B20002BD5D120F000431B0D1B05B3F1D66F23
S214084B30CED906994B6913B90B69012BC8DD0699BE
S214084B400122584603F000FC3946069003F05AFC4A
S214084B500028BDDD0A9B002B7AD14F4B2340A3F5D6
S214084B6080136FEA13536FEA03504FF0FF31039038
S214084B700291DDE90289ABE701F154710022039145
S214084B800A92FFF721BB454B454900220020CDE994
S214084B901623CDE90C01ACE40399C1F313030C46C4
S214084BA0002B7FF47EAF029A002A7FF47AAFD1E713
S214084BB002991CEA010F8BD07AE7013119917EE53C
S214084BC00027E8E4FFF7B2F802460B464046494697
S214084BD0FDF724FF002200238046894604F078FE6D
S214084BE000287FF4D1AE73E70A9B0299DBB12A4B03
S214084BF01340B3F1D46F16D81B0DC3F16B034FF0F7
S214084C00FF3000FA03F399427FF44BAF254B9A42E4
S214084C1038D0214B0020134003F5801303930290ED
S214084C20DDE9028954E74FF0FF33ECE719A81E497F
S214084C301CAA02F08DFC05287FF417AD1D9B1C9955
S214084C4043F0FF4343F4E00003900291FFF725BAD0
S214084C50114B2340B3F1D66F81D8B3F15C7F3FF692
S214084C6039AF91E64FF0FF3202FA03F3029A134087
S214084C70029343E6203B4FF0FF3101FA03F313405B
S214084C8003933BE60131C4D190E500BF80A308003A
S214084C90FFFF0F00000050390000F07F0000E0BF63
S214084CA00000E03FFFFFEF7FBCA00800AFF30080E6
S214084CB0024B0A4601461868FFF75AB858040720F8
S214084CC04B6E2DE9F0479C040E46804691462AD541
S214084CD09368126802F1080A1BB31AE9A000BF0815
S214084CE017D0043D002401E0A74210D0404655F8EE
S214084CF0041F324601F02EFD431C04F10104F3D1D3
S214084D000023C9F80830C9F80430BDE8F087D9F898
S214084D100830A3EB8703C9F808300AF1080A002B05
S214084D20DBD10020ECE701F057FF0023C9F8083074
S214084D30C9F80430BDE8F0872DE9F04FB1B01C463D
S214084D40029190460893069018B1836B002B00F0EA
S214084D50E880029DAB899AB2900407D46A6E43F441
S214084D60005322F40051AB819AB26966110740F1EC
S214084D70B780DDF808B0DBF81030002B00F0B08004
S214084D8002F01A020A2A00F0B78000230DF1800903
S214084D900A93159314930993CDF84C904E4698F8B9
S214084DA00030002B00F0C884252B00F0C58408F1DD
S214084DB0010201E0252B04D0137814460132002B9B
S214084DC0F8D1C8EB040595B1149B159A01332A440B
S214084DD0072BC6F800807560159214937BDD002AB1
S214084DE040F0D5840998149228444E4609902378B2
S214084DF0002B00F0ED8300214FF000024FF0FF3C3F
S214084E0063788DF8472004918A4604F1010808461D
S214084E10654608F10108A3F12002582A00F2D98253
S214084E20DFE812F0CB02D702D702D202D702D702A7
S214084E30D702D702D702D70282028F02D70284008F
S214084E409302D7022B0196019601960196019601C8
S214084E509601960196019601D702D702D702D70285
S214084E60D702D702D702D702D702D7023001D70215
S214084E70D702D702D702D702D702D702D702D7025D
S214084E80D7027B01D702D702D702D702D702A401DE
S214084E90D702D702BF01D702D702D702D702D70256
S214084EA0D702D702D702D702D702E401FA01D702FF
S214084EB0D702D7021602FA01D702D7021B02D70278
S214084EC02802890066027D02D7023A02D702190133
S214084ED0D702D702AF02083609982844099086E711
S214084EE00698029901F05CFAB0B9029DAA8902F008
S214084EF01A020A2A7FF449AFDDF808B0BBF90E306B
S214084F00002BFFF642AF069859464246234600F065
S214084F103DFD31B0BDE8F08F4FF0FF3031B0BDE851
S214084F20F08F01F081FB14E7404208934AF0040A28
S214084F3098F800306DE71AF020030490AC4600F0AD
S214084F40F480DDF820B00BF1070323F0070303F124
S214084F5008040894D3E9004500234FF00000002118
S214084F608DF84700CDF814C00791BCF1000FA8BF14
S214084F702AF0800A54EA050240F0AD80BCF1000F22
S214084F8040F0A980002B40F0C0831AF0010F00F013
S214084F90BC83302330AF07F8413DC7EB09040594BE
S214084FA0DDF814B0079CE345B8BFE346CDF80CB06F
S214084FB01CB10BF1010BCDF80CB01AF002050795E1
S214084FC005D0DDF80CB00BF1020BCDF80CB01AF0DA
S214084FD084030B9340F01B82049DDDF80CB0CBEBEA
S214084FE00504002C40F31382102C40F38984BE4D30
S214084FF0159A2B46149825464FF0100B6446B4466F
S2140850001E4606E0831C0CF1080C0846103D102DC1
S21408501011DD411C1032072915928CE840081491BE
S214085020F0DD002A40F0E681103D102D4FF0010318
S2140850301046CC46EDDC31466646A4462C460D4660
S2140850402244072B159235607460149300F36D8321
S2140850500836591CDEE11AF0200F0490AC4600F022
S2140850608D80089DEB1D23F0070303F1080BD3E999
S2140850700045CDF820B001236FE74AF0800A98F87B
S2140850800030C6E64AF0100A1AF0200F0490AC4624
S2140850908DF8471000F0C880089CE11D21F0070134
S2140850A0D1E900230831089114461D46002A73F1F9
S2140850B0000BC0F2CE83BCF1000F9DF84700A8BFD6
S2140850C02AF0800A54EA05020790CDF814C04FF07B
S2140850D001033FF453AF012B00F01983022B0DF1A7
S2140850E07F0340F04C82DDF828B0194604F00F0024
S2140850F022091BF8000042EA05722B09087052EADA
S21408510003000F4614461D4601F1FF31EED1CDE9E6
S2140851100E23C7EB0903059342E74AF0100A1AF074
S21408512020030490AC467FF40CAF1AF0100240F04F
S21408513011831AF0400300F00D83DDF820B0134603
S214085140BBF800400BF1040B0025CDF820B004E7AF
S214085150A3F13002002018F8013B00EB800002EBB8
S2140851604000A3F13002092AF5D954E64AF0100A9D
S2140851701AF0200F0490AC467FF473AF1AF0100FA5
S21408518040F0EF821AF0400F00F0EB82DDF820B016
S2140851900025BBF800400BF1040B0123CDF820B026
S2140851A0DBE6AC46514D1AF0200F04908DF84710F8
S2140851B00A9500F0F080089DEA1D22F0070202F129
S2140851C0080BCDF820B0D2E900451AF0010F00F020
S2140851D0AA8254EA050B00F0A68230228DF84930E0
S2140851E04AF0020A8DF848200223B6E6089BDDF846
S2140851F020B01B6801244FF000050BF1040B049047
S21408520003948DF847508DF85830CDF820B00594A3
S21408521016AF4FF0000CD0E61AF0200F0490AC46FC
S2140852208DF847107FF438AF1AF0100F40F0A782B9
S2140852301AF0400F00F0A382DDF820B0BBF900405A
S2140852400BF1040BE51722462B46CDF820B02DE7C8
S2140852504AF0400A98F80030DBE598F800304246F5
S2140852606C2B03BF08F101084AF0200A53784AF06D
S214085270100ACEE51AF0200F8DF8471000F0F782D6
S214085280089C2168099CE5172B46089D224604358C
S2140852900895C1E9002382E5089CAC4627684FF0CC
S2140852A0000504908DF847500434002F00F0328330
S2140852B0BCF1000F3846C0F2078362460021CDF8DD
S2140852C004C002F083FDDDF804C0002800F03A832D
S2140852D0C01B9DF847506045A8BF604605900894D7
S2140852E007954FF0000C5BE638A10800F8A0080008
S2140852F0089BDDF820B00490B2481C68302278235A
S2140853000BF1040BAC468DF849304AF0020ACDF88A
S21408531020B000258DF848200A9002231DE64AF0A2
S214085320200A98F8003074E5DDF820B0DBF80000B5
S2140853300BF104030028FFF6F7AD089398F8003041
S21408534067E598F800302B2163E598F8003008F1F7
S21408535001042A2B00F00583A3F13002092A98BF1E
S214085360002500F2FA8214F8013B05EB850502EBEE
S2140853704505A3F13002092AF5D945EAE575A046A0
S21408538049E5904C1AF0200F0490AC460A948DF824
S21408539047107FF410AF1AF0100F40F0EA811AF0A9
S2140853A0400F00F0E681DDF820B00025BBF800408D
S2140853B00BF1040BCDF820B007E798F80030002969
S2140853C07FF427AD202124E54AF0010A98F800303A
S2140853D01FE504908DF84710002B00F0F980012592
S2140853E04FF0000B03958DF858308DF847B00595AB
S2140853F016AF0EE70698029913AAFFF761FC002875
S21408540040F0ED801498159A431CCC46FEE5149B94
S214085410159A591C9DF8470068B101320DF14700EE
S214085420012307291592149186E8090000F3608184
S2140854300B4608360131079C64B1023212A80223D3
S21408544007291592149186E8090000F357810B4640
S214085450083601310B9D802D00F00181059DC5EBB6
S2140854600C04002C2FDD102C574D22DD30464FF053
S214085470100B2E462546069C06E003F1020C083063
S2140854800B46103D102D10DD591C103207291592B9
S21408549080E840081491F0DD002A63D1103D102DF5
S2140854A04FF0010C13464846EEDC2C46614635465E
S2140854B0064622440729159235607460149100F355
S2140854C0C18008360131059D07292A4415923760A0
S2140854D07560149140F3C180002A40F03081149220
S2140854E04E461AF0040F00F08B80049DDDF80CB0D1
S2140854F0CBEB0504002C40F38380102C40F31E826F
S2140855001499324D1027DDF818A0DDF808B005E02C
S214085510881C08361946103C102C10DD4B1C10321F
S214085520072B159286E8A0001493F1DD002A7DD19A
S214085530103C102C4FF0010011464E46EEDC22447B
S2140855400728159235607460149059DD002A4FD1EB
S214085550099CDDF80CB0049DAB45ACBF5C446419EF
S21408556009945EE02046029913AAFFF7A9FB0028D3
S21408557035D1149B159A03F1010C484681E7E008DB
S21408558040EA457004F00702E908303250EA010B99
S2140855901F461A7004460D4603F1FF33EFD11AF082
S2140855A0010FCDE90C01394600F0B980302A3FF4E6
S2140855B0F4AC1F46C7EB09053023059501F8013CF6
S2140855C0EEE400BF0CA1080028A1080038A10800D6
S2140855D0159B23B10698029913AAFFF771FB029C44
S2140855E0A3895B063FF598AC099831B0BDE8F08F03
S2140855F00698029913AAFFF763FB0028EFD1159ABD
S214085600099CDDF80CB0049DAB45ACBF5C4464193E
S214085610099432B10698029913AAFFF751FB00289D
S214085620DDD1002014904E46FFF7B9BB50465946C8
S21408563013AAFFF745FB0028D1D11499159A481CE0
S2140856404E4668E7002A40F0F780059C012320971D
S21408565021941594224614934E46083641E7049D35
S214085660DDF80CB0CBEB0504002C7FF7F7AE102C5A
S214085670A64D40F3708129464FF0100B2546644628
S214085680B4460E4606E0981C0CF1080C0B46103D76
S214085690102D0FDD591C1032072915928CE840088A
S2140856A01491F0DDBAB9103D102D4FF001001346E5
S2140856B0CC46EFDC33466646A4462C461D462244B6
S2140856C00728159235607460149000F3AF8008368A
S2140856D0411C0346C2E60698029913AAFFF7F0FA99
S2140856E000287FF47CAF149B159A581CCC46CEE74E
S2140856F0002A79D119464E4613469CE6002A40F001
S2140857008480012113464E46A4E64F4648E4002D01
S21408571008BF0A2C46D2303430AF07F8414DC7EBE5
S214085720090305933CE4022317E4002A40F0AF80FF
S214085730134601214E466DE64446FFF758BB0698C9
S214085740029913AAFFF7BCFA00287FF448AF159A07
S2140857504E46C6E6089D2C68043508950025FFF7D2
S214085760FCBB089D01232C68043508950025FFF727
S214085770F4BB089D2C6804350895002525E5089D8A
S2140857802C6804350895E51722462B468EE40698BD
S214085790029913AAFFF794FA00287FF420AF4E4622
S2140857A0FFF79ABB0DF17F0B03965E46E34620464D
S2140857B029460A22002304F005F9303232702046C2
S2140857C029460A22002304F0FDF804460D4654EA4A
S2140857D00500374606F1FF36E9D1C7EB0903DC4674
S2140857E0039E0593FFF7DCBB0698029913AACDF82B
S2140857F004C0FFF765FADDF804C000287FF4EFAEB2
S214085800149B159A591C4E4615E60698029913AA33
S214085810CDF804C0FFF754FADDF804C000287FF47A
S214085820DEAE149B159A591C4E4613E6002A56D12E
S214085830012113464E4611E60698029913AAFFF769
S2140858403FFA00287FF4CBAE1499159A01314E46DC
S21408585039E64FF02D0B644265EB45058DF847B0E9
S214085860CDF81CB0CDF814C00123FFF77EBB1AF0A4
S214085870100F1DD11AF0400F58D0089DDDF824B03F
S2140858802B6804350895A3F800B0FFF788BA069881
S214085890029913AACDF804C0FFF712FADDF804C07F
S2140858A000287FF49CAE149B159A591C4E46B1E509
S2140858B0DDF820B0099CDBF800300BF1040BCDF8BE
S2140858C020B01C60FFF76BBA0894FEF773F99DF8D2
